{
  "contractName": "SupplyChain",
  "abi": [
    {
      "inputs": [],
      "stateMutability": "nonpayable",
      "type": "constructor"
    },
    {
      "inputs": [
        {
          "internalType": "uint256",
          "name": "",
          "type": "uint256"
        }
      ],
      "name": "Batches",
      "outputs": [
        {
          "internalType": "uint256",
          "name": "id",
          "type": "uint256"
        },
        {
          "internalType": "uint256",
          "name": "RMSid",
          "type": "uint256"
        },
        {
          "internalType": "uint256",
          "name": "MANid",
          "type": "uint256"
        },
        {
          "internalType": "uint256",
          "name": "DISid",
          "type": "uint256"
        },
        {
          "internalType": "uint256",
          "name": "RETid",
          "type": "uint256"
        }
      ],
      "stateMutability": "view",
      "type": "function",
      "constant": true
    },
    {
      "inputs": [
        {
          "internalType": "uint256",
          "name": "",
          "type": "uint256"
        }
      ],
      "name": "DIS",
      "outputs": [
        {
          "internalType": "address",
          "name": "addr",
          "type": "address"
        },
        {
          "internalType": "uint256",
          "name": "id",
          "type": "uint256"
        },
        {
          "internalType": "string",
          "name": "name",
          "type": "string"
        },
        {
          "internalType": "string",
          "name": "place",
          "type": "string"
        }
      ],
      "stateMutability": "view",
      "type": "function",
      "constant": true
    },
    {
      "inputs": [
        {
          "internalType": "uint256",
          "name": "",
          "type": "uint256"
        }
      ],
      "name": "MAN",
      "outputs": [
        {
          "internalType": "address",
          "name": "addr",
          "type": "address"
        },
        {
          "internalType": "uint256",
          "name": "id",
          "type": "uint256"
        },
        {
          "internalType": "string",
          "name": "name",
          "type": "string"
        },
        {
          "internalType": "string",
          "name": "place",
          "type": "string"
        }
      ],
      "stateMutability": "view",
      "type": "function",
      "constant": true
    },
    {
      "inputs": [
        {
          "internalType": "uint256",
          "name": "",
          "type": "uint256"
        }
      ],
      "name": "MedicineStock",
      "outputs": [
        {
          "internalType": "uint256",
          "name": "id",
          "type": "uint256"
        },
        {
          "internalType": "string",
          "name": "name",
          "type": "string"
        },
        {
          "internalType": "string",
          "name": "description",
          "type": "string"
        },
        {
          "internalType": "uint256",
          "name": "RMSid",
          "type": "uint256"
        },
        {
          "internalType": "string",
          "name": "newRMS",
          "type": "string"
        },
        {
          "internalType": "uint256",
          "name": "MANid",
          "type": "uint256"
        },
        {
          "internalType": "string",
          "name": "newMAN",
          "type": "string"
        },
        {
          "internalType": "uint256",
          "name": "DISid",
          "type": "uint256"
        },
        {
          "internalType": "string",
          "name": "newDIS",
          "type": "string"
        },
        {
          "internalType": "uint256",
          "name": "RETid",
          "type": "uint256"
        },
        {
          "internalType": "string",
          "name": "newRET",
          "type": "string"
        },
        {
          "internalType": "string",
          "name": "newSold",
          "type": "string"
        },
        {
          "internalType": "enum SupplyChain.STAGE",
          "name": "stage",
          "type": "uint8"
        }
      ],
      "stateMutability": "view",
      "type": "function",
      "constant": true
    },
    {
      "inputs": [
        {
          "internalType": "uint256",
          "name": "",
          "type": "uint256"
        }
      ],
      "name": "MedicineToBatch",
      "outputs": [
        {
          "internalType": "uint256",
          "name": "",
          "type": "uint256"
        }
      ],
      "stateMutability": "view",
      "type": "function",
      "constant": true
    },
    {
      "inputs": [],
      "name": "Owner",
      "outputs": [
        {
          "internalType": "address",
          "name": "",
          "type": "address"
        }
      ],
      "stateMutability": "view",
      "type": "function",
      "constant": true
    },
    {
      "inputs": [
        {
          "internalType": "uint256",
          "name": "",
          "type": "uint256"
        }
      ],
      "name": "RET",
      "outputs": [
        {
          "internalType": "address",
          "name": "addr",
          "type": "address"
        },
        {
          "internalType": "uint256",
          "name": "id",
          "type": "uint256"
        },
        {
          "internalType": "string",
          "name": "name",
          "type": "string"
        },
        {
          "internalType": "string",
          "name": "place",
          "type": "string"
        }
      ],
      "stateMutability": "view",
      "type": "function",
      "constant": true
    },
    {
      "inputs": [
        {
          "internalType": "uint256",
          "name": "",
          "type": "uint256"
        }
      ],
      "name": "RMS",
      "outputs": [
        {
          "internalType": "address",
          "name": "addr",
          "type": "address"
        },
        {
          "internalType": "uint256",
          "name": "id",
          "type": "uint256"
        },
        {
          "internalType": "string",
          "name": "name",
          "type": "string"
        },
        {
          "internalType": "string",
          "name": "place",
          "type": "string"
        }
      ],
      "stateMutability": "view",
      "type": "function",
      "constant": true
    },
    {
      "inputs": [
        {
          "internalType": "uint256",
          "name": "",
          "type": "uint256"
        }
      ],
      "name": "RetailerRequests",
      "outputs": [
        {
          "internalType": "uint256",
          "name": "id",
          "type": "uint256"
        },
        {
          "internalType": "uint256",
          "name": "retailerId",
          "type": "uint256"
        },
        {
          "internalType": "string",
          "name": "name",
          "type": "string"
        },
        {
          "internalType": "string",
          "name": "description",
          "type": "string"
        },
        {
          "internalType": "bool",
          "name": "isApproved",
          "type": "bool"
        },
        {
          "internalType": "bool",
          "name": "isProcessed",
          "type": "bool"
        }
      ],
      "stateMutability": "view",
      "type": "function",
      "constant": true
    },
    {
      "inputs": [
        {
          "internalType": "uint256",
          "name": "",
          "type": "uint256"
        },
        {
          "internalType": "uint256",
          "name": "",
          "type": "uint256"
        }
      ],
      "name": "RetailerToRequests",
      "outputs": [
        {
          "internalType": "uint256",
          "name": "",
          "type": "uint256"
        }
      ],
      "stateMutability": "view",
      "type": "function",
      "constant": true
    },
    {
      "inputs": [],
      "name": "batchCtr",
      "outputs": [
        {
          "internalType": "uint256",
          "name": "",
          "type": "uint256"
        }
      ],
      "stateMutability": "view",
      "type": "function",
      "constant": true
    },
    {
      "inputs": [],
      "name": "disCtr",
      "outputs": [
        {
          "internalType": "uint256",
          "name": "",
          "type": "uint256"
        }
      ],
      "stateMutability": "view",
      "type": "function",
      "constant": true
    },
    {
      "inputs": [
        {
          "internalType": "address",
          "name": "",
          "type": "address"
        }
      ],
      "name": "isDIS",
      "outputs": [
        {
          "internalType": "bool",
          "name": "",
          "type": "bool"
        }
      ],
      "stateMutability": "view",
      "type": "function",
      "constant": true
    },
    {
      "inputs": [
        {
          "internalType": "address",
          "name": "",
          "type": "address"
        }
      ],
      "name": "isMAN",
      "outputs": [
        {
          "internalType": "bool",
          "name": "",
          "type": "bool"
        }
      ],
      "stateMutability": "view",
      "type": "function",
      "constant": true
    },
    {
      "inputs": [
        {
          "internalType": "address",
          "name": "",
          "type": "address"
        }
      ],
      "name": "isRET",
      "outputs": [
        {
          "internalType": "bool",
          "name": "",
          "type": "bool"
        }
      ],
      "stateMutability": "view",
      "type": "function",
      "constant": true
    },
    {
      "inputs": [
        {
          "internalType": "address",
          "name": "",
          "type": "address"
        }
      ],
      "name": "isRMS",
      "outputs": [
        {
          "internalType": "bool",
          "name": "",
          "type": "bool"
        }
      ],
      "stateMutability": "view",
      "type": "function",
      "constant": true
    },
    {
      "inputs": [],
      "name": "manCtr",
      "outputs": [
        {
          "internalType": "uint256",
          "name": "",
          "type": "uint256"
        }
      ],
      "stateMutability": "view",
      "type": "function",
      "constant": true
    },
    {
      "inputs": [],
      "name": "medicineCtr",
      "outputs": [
        {
          "internalType": "uint256",
          "name": "",
          "type": "uint256"
        }
      ],
      "stateMutability": "view",
      "type": "function",
      "constant": true
    },
    {
      "inputs": [],
      "name": "requestCtr",
      "outputs": [
        {
          "internalType": "uint256",
          "name": "",
          "type": "uint256"
        }
      ],
      "stateMutability": "view",
      "type": "function",
      "constant": true
    },
    {
      "inputs": [],
      "name": "retCtr",
      "outputs": [
        {
          "internalType": "uint256",
          "name": "",
          "type": "uint256"
        }
      ],
      "stateMutability": "view",
      "type": "function",
      "constant": true
    },
    {
      "inputs": [],
      "name": "rmsCtr",
      "outputs": [
        {
          "internalType": "uint256",
          "name": "",
          "type": "uint256"
        }
      ],
      "stateMutability": "view",
      "type": "function",
      "constant": true
    },
    {
      "inputs": [
        {
          "internalType": "uint256",
          "name": "_medicineID",
          "type": "uint256"
        }
      ],
      "name": "showStage",
      "outputs": [
        {
          "internalType": "string",
          "name": "",
          "type": "string"
        }
      ],
      "stateMutability": "view",
      "type": "function",
      "constant": true
    },
    {
      "inputs": [
        {
          "internalType": "address",
          "name": "_address",
          "type": "address"
        },
        {
          "internalType": "string",
          "name": "_name",
          "type": "string"
        },
        {
          "internalType": "string",
          "name": "_place",
          "type": "string"
        }
      ],
      "name": "addRMS",
      "outputs": [],
      "stateMutability": "nonpayable",
      "type": "function"
    },
    {
      "inputs": [
        {
          "internalType": "address",
          "name": "_address",
          "type": "address"
        },
        {
          "internalType": "string",
          "name": "_name",
          "type": "string"
        },
        {
          "internalType": "string",
          "name": "_place",
          "type": "string"
        }
      ],
      "name": "addManufacturer",
      "outputs": [],
      "stateMutability": "nonpayable",
      "type": "function"
    },
    {
      "inputs": [
        {
          "internalType": "address",
          "name": "_address",
          "type": "address"
        },
        {
          "internalType": "string",
          "name": "_name",
          "type": "string"
        },
        {
          "internalType": "string",
          "name": "_place",
          "type": "string"
        }
      ],
      "name": "addDistributor",
      "outputs": [],
      "stateMutability": "nonpayable",
      "type": "function"
    },
    {
      "inputs": [
        {
          "internalType": "address",
          "name": "_address",
          "type": "address"
        },
        {
          "internalType": "string",
          "name": "_name",
          "type": "string"
        },
        {
          "internalType": "string",
          "name": "_place",
          "type": "string"
        }
      ],
      "name": "addRetailer",
      "outputs": [],
      "stateMutability": "nonpayable",
      "type": "function"
    },
    {
      "inputs": [
        {
          "internalType": "uint256",
          "name": "_medicineID",
          "type": "uint256"
        },
        {
          "internalType": "uint256",
          "name": "_MANid",
          "type": "uint256"
        },
        {
          "internalType": "string",
          "name": "_locationData",
          "type": "string"
        }
      ],
      "name": "RMSsupply",
      "outputs": [],
      "stateMutability": "nonpayable",
      "type": "function"
    },
    {
      "inputs": [
        {
          "internalType": "address",
          "name": "_address",
          "type": "address"
        }
      ],
      "name": "findRMS",
      "outputs": [
        {
          "internalType": "uint256",
          "name": "",
          "type": "uint256"
        }
      ],
      "stateMutability": "view",
      "type": "function",
      "constant": true
    },
    {
      "inputs": [
        {
          "internalType": "uint256",
          "name": "_medicineID",
          "type": "uint256"
        },
        {
          "internalType": "uint256",
          "name": "_DISid",
          "type": "uint256"
        },
        {
          "internalType": "string",
          "name": "_locationData",
          "type": "string"
        }
      ],
      "name": "Manufacturing",
      "outputs": [],
      "stateMutability": "nonpayable",
      "type": "function"
    },
    {
      "inputs": [
        {
          "internalType": "address",
          "name": "_address",
          "type": "address"
        }
      ],
      "name": "findMAN",
      "outputs": [
        {
          "internalType": "uint256",
          "name": "",
          "type": "uint256"
        }
      ],
      "stateMutability": "view",
      "type": "function",
      "constant": true
    },
    {
      "inputs": [
        {
          "internalType": "uint256",
          "name": "_medicineID",
          "type": "uint256"
        },
        {
          "internalType": "string",
          "name": "_locationData",
          "type": "string"
        }
      ],
      "name": "Distribute",
      "outputs": [],
      "stateMutability": "nonpayable",
      "type": "function"
    },
    {
      "inputs": [
        {
          "internalType": "address",
          "name": "_address",
          "type": "address"
        }
      ],
      "name": "findDIS",
      "outputs": [
        {
          "internalType": "uint256",
          "name": "",
          "type": "uint256"
        }
      ],
      "stateMutability": "view",
      "type": "function",
      "constant": true
    },
    {
      "inputs": [
        {
          "internalType": "uint256",
          "name": "_medicineID",
          "type": "uint256"
        },
        {
          "internalType": "string",
          "name": "_locationData",
          "type": "string"
        }
      ],
      "name": "Retail",
      "outputs": [],
      "stateMutability": "nonpayable",
      "type": "function"
    },
    {
      "inputs": [
        {
          "internalType": "address",
          "name": "_address",
          "type": "address"
        }
      ],
      "name": "findRET",
      "outputs": [
        {
          "internalType": "uint256",
          "name": "",
          "type": "uint256"
        }
      ],
      "stateMutability": "view",
      "type": "function",
      "constant": true
    },
    {
      "inputs": [
        {
          "internalType": "uint256",
          "name": "_medicineID",
          "type": "uint256"
        },
        {
          "internalType": "string",
          "name": "_locationData",
          "type": "string"
        }
      ],
      "name": "sold",
      "outputs": [],
      "stateMutability": "nonpayable",
      "type": "function"
    },
    {
      "inputs": [
        {
          "internalType": "string",
          "name": "_name",
          "type": "string"
        },
        {
          "internalType": "string",
          "name": "_description",
          "type": "string"
        },
        {
          "internalType": "uint256",
          "name": "_newid",
          "type": "uint256"
        }
      ],
      "name": "addMedicine",
      "outputs": [],
      "stateMutability": "nonpayable",
      "type": "function"
    },
    {
      "inputs": [
        {
          "internalType": "string[]",
          "name": "_names",
          "type": "string[]"
        },
        {
          "internalType": "string[]",
          "name": "_descriptions",
          "type": "string[]"
        },
        {
          "internalType": "uint256",
          "name": "_RMSid",
          "type": "uint256"
        }
      ],
      "name": "addMultipleMedicines",
      "outputs": [],
      "stateMutability": "nonpayable",
      "type": "function"
    },
    {
      "inputs": [
        {
          "internalType": "uint256",
          "name": "_batchId",
          "type": "uint256"
        }
      ],
      "name": "getMedicinesInBatch",
      "outputs": [
        {
          "internalType": "uint256[]",
          "name": "",
          "type": "uint256[]"
        }
      ],
      "stateMutability": "view",
      "type": "function",
      "constant": true
    },
    {
      "inputs": [
        {
          "internalType": "uint256",
          "name": "_batchId",
          "type": "uint256"
        }
      ],
      "name": "getBatchDetails",
      "outputs": [
        {
          "internalType": "uint256",
          "name": "id",
          "type": "uint256"
        },
        {
          "internalType": "uint256[]",
          "name": "medicineIds",
          "type": "uint256[]"
        },
        {
          "internalType": "uint256",
          "name": "RMSid",
          "type": "uint256"
        },
        {
          "internalType": "uint256",
          "name": "MANid",
          "type": "uint256"
        },
        {
          "internalType": "uint256",
          "name": "DISid",
          "type": "uint256"
        },
        {
          "internalType": "uint256",
          "name": "RETid",
          "type": "uint256"
        }
      ],
      "stateMutability": "view",
      "type": "function",
      "constant": true
    },
    {
      "inputs": [
        {
          "internalType": "string",
          "name": "_name",
          "type": "string"
        },
        {
          "internalType": "string",
          "name": "_description",
          "type": "string"
        }
      ],
      "name": "submitRetailerRequest",
      "outputs": [],
      "stateMutability": "nonpayable",
      "type": "function"
    },
    {
      "inputs": [
        {
          "internalType": "uint256",
          "name": "_requestId",
          "type": "uint256"
        },
        {
          "internalType": "uint256",
          "name": "_rmsId",
          "type": "uint256"
        }
      ],
      "name": "approveRetailerRequest",
      "outputs": [],
      "stateMutability": "nonpayable",
      "type": "function"
    },
    {
      "inputs": [
        {
          "internalType": "uint256",
          "name": "_retailerId",
          "type": "uint256"
        }
      ],
      "name": "getRetailerRequests",
      "outputs": [
        {
          "internalType": "uint256[]",
          "name": "",
          "type": "uint256[]"
        }
      ],
      "stateMutability": "view",
      "type": "function",
      "constant": true
    },
    {
      "inputs": [
        {
          "internalType": "uint256",
          "name": "_requestId",
          "type": "uint256"
        }
      ],
      "name": "getRequestDetails",
      "outputs": [
        {
          "internalType": "uint256",
          "name": "id",
          "type": "uint256"
        },
        {
          "internalType": "uint256",
          "name": "retailerId",
          "type": "uint256"
        },
        {
          "internalType": "string",
          "name": "name",
          "type": "string"
        },
        {
          "internalType": "string",
          "name": "description",
          "type": "string"
        },
        {
          "internalType": "bool",
          "name": "isApproved",
          "type": "bool"
        },
        {
          "internalType": "bool",
          "name": "isProcessed",
          "type": "bool"
        }
      ],
      "stateMutability": "view",
      "type": "function",
      "constant": true
    },
    {
      "inputs": [
        {
          "internalType": "uint256",
          "name": "_medicineID",
          "type": "uint256"
        },
        {
          "internalType": "string",
          "name": "_locationData",
          "type": "string"
        }
      ],
      "name": "updateMedicineLocation",
      "outputs": [],
      "stateMutability": "nonpayable",
      "type": "function"
    }
  ],
  "bytecode": "0x6080604052600060015560006002556000600355600060045560006005556000600f55600060125534801561003357600080fd5b50600080546001600160a01b031916331790556130e5806100556000396000f3fe608060405234801561001057600080fd5b50600436106102745760003560e01c80636fd290e711610151578063cc403069116100c3578063e101a2e011610087578063e101a2e014610630578063e75138d814610650578063eb1a06b514610659578063eef5cb4014610685578063f1fb34c214610698578063f34d4c63146106ab57600080fd5b8063cc403069146105cb578063d60ca56d146105de578063d7f8fe0d146105f1578063dc7ae59e14610614578063dd2863981461062757600080fd5b80638dc7d8f1116101155780638dc7d8f11461053957806390d097381461054c5780639d47dcc01461055f578063a95f29d914610584578063b4a99a4e1461058d578063bf63f6bd146105b857600080fd5b80636fd290e7146104d457806379d8ac41146104f75780637e43d94d1461050a5780637f5384b614610513578063857ddb041461052657600080fd5b806338acd64d116101ea57806359bf286f116101ae57806359bf286f146104525780635a1782501461046557806361143dc4146104785780636a992c9f1461049b5780636ec18782146104ae5780636fbe7fea146104c157600080fd5b806338acd64d1461037e5780633fc2a43214610391578063438e9c4d146103f6578063485772f2146103ff57806355f03e7f1461041f57600080fd5b806323c55dfa1161023c57806323c55dfa146103105780632a4af440146103195780632b0187ac1461032c5780632b70b08d1461034f5780632bdb2e6b146103625780632e2516761461036b57600080fd5b8063082f5689146102795780630f5394a81461028e57806310fa5763146102bc5780631768c625146102dd5780631cd77037146102f0575b600080fd5b61028c610287366004612921565b6106be565b005b6102a161029c36600461298e565b61078a565b6040516102b3969594939291906129ed565b60405180910390f35b6102cf6102ca366004612a50565b6108d5565b6040519081526020016102b3565b6102cf6102eb366004612a50565b610949565b6103036102fe36600461298e565b6109b0565b6040516102b39190612aad565b6102cf600f5481565b61028c610327366004612ac0565b610a6b565b61033f61033a36600461298e565b610b45565b6040516102b39493929190612b34565b61028c61035d366004612ac0565b610c88565b6102cf60045481565b61028c610379366004612c17565b610d63565b61028c61038c366004612c73565b6111b0565b6103ce61039f36600461298e565b601060205260009081526040902080546002820154600383015460048401546005909401549293919290919085565b604080519586526020860194909452928401919091526060830152608082015260a0016102b3565b6102cf60035481565b6102cf61040d36600461298e565b60116020526000908152604090205481565b61044261042d366004612a50565b600b6020526000908152604090205460ff1681565b60405190151581526020016102b3565b61033f61046036600461298e565b611286565b61028c610473366004612c73565b6112b8565b610442610486366004612a50565b600c6020526000908152604090205460ff1681565b61028c6104a9366004612ac0565b611405565b61028c6104bc366004612c73565b6114df565b61028c6104cf366004612cba565b6115a2565b6104426104e2366004612a50565b600e6020526000908152604090205460ff1681565b61028c610505366004612cdc565b61182e565b6102cf60055481565b61028c610521366004612d36565b611986565b61028c610534366004612ac0565b611a4d565b6102cf610547366004612a50565b611b27565b6102cf61055a366004612a50565b611b8e565b61057261056d36600461298e565b611bf5565b6040516102b396959493929190612d7c565b6102cf60015481565b6000546105a0906001600160a01b031681565b6040516001600160a01b0390911681526020016102b3565b61028c6105c6366004612c73565b611d23565b61033f6105d936600461298e565b611df9565b6103036105ec36600461298e565b611e2b565b6104426105ff366004612a50565b600d6020526000908152604090205460ff1681565b61028c610622366004612d36565b611e8b565b6102cf60025481565b61064361063e36600461298e565b611f4f565b6040516102b39190612dba565b6102cf60125481565b61066c61066736600461298e565b612184565b6040516102b39d9c9b9a99989796959493929190612e05565b61033f61069336600461298e565b61259e565b6102cf6106a6366004612cba565b6125d0565b6102a16106b936600461298e565b612601565b6000546001600160a01b031633146106d557600080fd5b600180549060006106e583612ed5565b90915550506001805460008181526006602052604090209081550161070a8482612f85565b5060015460009081526006602052604090206002016107298382612f85565b5060018054600090815260066020526040808220600301849055825482528082206005018290558254825280822060070182905582548252808220600901829055825482528120600c0180549192909160ff191690835b0217905550505050565b601360205260009081526040902080546001820154600283018054929391926107b290612efc565b80601f01602080910402602001604051908101604052809291908181526020018280546107de90612efc565b801561082b5780601f106108005761010080835404028352916020019161082b565b820191906000526020600020905b81548152906001019060200180831161080e57829003601f168201915b50505050509080600301805461084090612efc565b80601f016020809104026020016040519081016040528092919081815260200182805461086c90612efc565b80156108b95780601f1061088e576101008083540402835291602001916108b9565b820191906000526020600020905b81548152906001019060200180831161089c57829003601f168201915b5050506004909301549192505060ff8082169161010090041686565b60006005546000036108e957506000919050565b60015b6005548111610940576000818152600a60205260409020546001600160a01b0380851691160361092e576000908152600a602052604090206001015492915050565b8061093881612ed5565b9150506108ec565b50600092915050565b6000806002541161095957600080fd5b60015b6002548111610940576000818152600760205260409020546001600160a01b0380851691160361099e5760009081526007602052604090206001015492915050565b806109a881612ed5565b91505061095c565b60606000821180156109c45750600f548211155b610a085760405162461bcd60e51b815260206004820152601060248201526f125b9d985b1a590818985d18da08125160821b60448201526064015b60405180910390fd5b60008281526010602090815260409182902060010180548351818402810184019094528084529091830182828015610a5f57602002820191906000526020600020905b815481526020019060010190808311610a4b575b50505050509050919050565b6000546001600160a01b03163314610a8257600080fd5b60048054906000610a9283612ed5565b9091555050604080516080810182526001600160a01b0385811682526004546020808401828152848601888152606086018890526000938452600990925294909120835181546001600160a01b03191693169290921782559251600182015591519091906002820190610b059082612f85565b5060608201516003820190610b1a9082612f85565b5050506001600160a01b039092166000908152600d60205260409020805460ff191660011790555050565b6009602052600090815260409020805460018201546002830180546001600160a01b03909316939192610b7790612efc565b80601f0160208091040260200160405190810160405280929190818152602001828054610ba390612efc565b8015610bf05780601f10610bc557610100808354040283529160200191610bf0565b820191906000526020600020905b815481529060010190602001808311610bd357829003601f168201915b505050505090806003018054610c0590612efc565b80601f0160208091040260200160405190810160405280929190818152602001828054610c3190612efc565b8015610c7e5780601f10610c5357610100808354040283529160200191610c7e565b820191906000526020600020905b815481529060010190602001808311610c6157829003601f168201915b5050505050905084565b6000546001600160a01b03163314610c9f57600080fd5b60028054906000610caf83612ed5565b9091555050604080516080810182526001600160a01b038581168252600280546020808501828152858701898152606087018990526000938452600790925295909120845181546001600160a01b03191694169390931783559351600183015592519192909190820190610d239082612f85565b5060608201516003820190610d389082612f85565b5050506001600160a01b039092166000908152600b60205260409020805460ff191660011790555050565b6000546001600160a01b03163314610d7a57600080fd5b8151835114610dcb5760405162461bcd60e51b815260206004820152601e60248201527f417272617973206d757374206265206f6620657175616c206c656e677468000060448201526064016109ff565b6000835111610e1c5760405162461bcd60e51b815260206004820152601e60248201527f4d75737420616464206174206c65617374206f6e65206d65646963696e65000060448201526064016109ff565b600081118015610e2e57506002548111155b610e6b5760405162461bcd60e51b815260206004820152600e60248201526d125b9d985b1a5908149354c8125160921b60448201526064016109ff565b600f8054906000610e7b83612ed5565b91905055506000835167ffffffffffffffff811115610e9c57610e9c61286a565b604051908082528060200260200182016040528015610ec5578160200160208202803683370190505b50905060005b84518110156111235760018054906000610ee483612ed5565b9190505550604051806101a001604052806001548152602001868381518110610f0f57610f0f613045565b60200260200101518152602001858381518110610f2e57610f2e613045565b6020026020010151815260200184815260200160405180602001604052806000815250815260200160008152602001604051806020016040528060008152508152602001600081526020016040518060200160405280600081525081526020016000815260200160405180602001604052806000815250815260200160405180602001604052806000815250815260200160006005811115610fd257610fd2612dcd565b9052600180546000908152600660209081526040909120835181559083015190918201906110009082612f85565b50604082015160028201906110159082612f85565b5060608201516003820155608082015160048201906110349082612f85565b5060a0820151600582015560c082015160068201906110539082612f85565b5060e0820151600782015561010082015160088201906110739082612f85565b506101208201516009820155610140820151600a8201906110949082612f85565b50610160820151600b8201906110aa9082612f85565b50610180820151600c8201805460ff191660018360058111156110cf576110cf612dcd565b02179055509050506001548282815181106110ec576110ec613045565b602090810291909101810191909152600f54600154600090815260119092526040909120558061111b81612ed5565b915050610ecb565b506040805160c081018252600f5480825260208083018581528385018790526000606085018190526080850181905260a085018190529283526010825293909120825181559251805192939261117f926001850192019061280a565b5060408201516002820155606082015160038201556080820151600482015560a09091015160059091015550505050565b6000821180156111c257506001548211155b6111cb57600080fd5b60006111d6336108d5565b9050600081116111e557600080fd5b60008381526006602052604090206009015481146112155760405162461bcd60e51b81526004016109ff9061305b565b60046000848152600660205260409020600c015460ff16600581111561123d5761123d612dcd565b1461124757600080fd5b6000838152600660205260409020600b016112628382612f85565b506000838152600660205260409020600c0180546005919060ff1916600183610780565b600a602052600090815260409020805460018201546002830180546001600160a01b03909316939192610b7790612efc565b6000821180156112ca57506001548211155b61130c5760405162461bcd60e51b8152602060048201526013602482015272125b9d985b1a59081b59591a58da5b99481251606a1b60448201526064016109ff565b600061131733610949565b9050600081116113795760405162461bcd60e51b815260206004820152602760248201527f4f6e6c79207265676973746572656420524d532063616e20757064617465206c60448201526637b1b0ba34b7b760c91b60648201526084016109ff565b60008381526006602052604090206003015481146113e45760405162461bcd60e51b815260206004820152602260248201527f556e617574686f72697a656420524d5320666f722074686973206d65646963696044820152616e6560f01b60648201526084016109ff565b60008381526006602052604090206004016113ff8382612f85565b50505050565b6000546001600160a01b0316331461141c57600080fd5b6003805490600061142c83612ed5565b9091555050604080516080810182526001600160a01b0385811682526003546020808401828152848601888152606086018890526000938452600890925294909120835181546001600160a01b0319169316929092178255925160018201559151909190600282019061149f9082612f85565b50606082015160038201906114b49082612f85565b5050506001600160a01b039092166000908152600c60205260409020805460ff191660011790555050565b6000821180156114f157506001548211155b6114fa57600080fd5b600061150533611b27565b90506000811161151457600080fd5b60026000848152600660205260409020600c015460ff16600581111561153c5761153c612dcd565b1461154657600080fd5b600083815260066020526040902060070154811461156357600080fd5b600083815260066020526040902060080161157e8382612f85565b506000838152600660205260409020600c0180546003919060ff1916600183610780565b6000546001600160a01b031633146115b957600080fd5b6000821180156115cb57506012548211155b61160c5760405162461bcd60e51b8152602060048201526012602482015271125b9d985b1a59081c995c5d595cdd08125160721b60448201526064016109ff565b60008111801561161e57506002548111155b61165b5760405162461bcd60e51b815260206004820152600e60248201526d125b9d985b1a5908149354c8125160921b60448201526064016109ff565b60008281526013602052604090206004015460ff16156116bd5760405162461bcd60e51b815260206004820152601860248201527f5265717565737420616c726561647920617070726f766564000000000000000060448201526064016109ff565b600082815260136020526040902060048101805460ff191660019081179091558101546002909101805461181591906116f590612efc565b80601f016020809104026020016040519081016040528092919081815260200182805461172190612efc565b801561176e5780601f106117435761010080835404028352916020019161176e565b820191906000526020600020905b81548152906001019060200180831161175157829003601f168201915b505050600087815260136020526040902060030180549092506117919150612efc565b80601f01602080910402602001604051908101604052809291908181526020018280546117bd90612efc565b801561180a5780601f106117df5761010080835404028352916020019161180a565b820191906000526020600020905b8154815290600101906020018083116117ed57829003601f168201915b5050505050846106be565b6001546000908152600660205260409020600901555050565b6000611839336108d5565b9050600081116118a15760405162461bcd60e51b815260206004820152602d60248201527f4f6e6c7920726567697374657265642072657461696c6572732063616e20737560448201526c626d697420726571756573747360981b60648201526084016109ff565b601280549060006118b183612ed5565b90915550506040805160c08101825260125480825260208083018581528385018881526060850188905260006080860181905260a0860181905293845260139092529390912082518155925160018401555190919060028201906119159082612f85565b506060820151600382019061192a9082612f85565b5060808201516004909101805460a09093015115156101000261ff00199215159290921661ffff199093169290921717905560009081526014602090815260408220601254815460018101835591845291909220909101555050565b60008311801561199857506001548311155b6119a157600080fd5b60006119ac33611b8e565b9050600081116119bb57600080fd5b60016000858152600660205260409020600c015460ff1660058111156119e3576119e3612dcd565b146119ed57600080fd5b6000848152600660205260409020600501548114611a0a57600080fd5b600084815260066020819052604090912001611a268382612f85565b505050600091825260066020526040909120600c8101805460ff1916600217905560070155565b6000546001600160a01b03163314611a6457600080fd5b60058054906000611a7483612ed5565b9091555050604080516080810182526001600160a01b0385811682526005546020808401828152848601888152606086018890526000938452600a90925294909120835181546001600160a01b03191693169290921782559251600182015591519091906002820190611ae79082612f85565b5060608201516003820190611afc9082612f85565b5050506001600160a01b039092166000908152600e60205260409020805460ff191660011790555050565b60008060045411611b3757600080fd5b60015b6004548111610940576000818152600960205260409020546001600160a01b03808516911603611b7c5760009081526009602052604090206001015492915050565b80611b8681612ed5565b915050611b3a565b60008060035411611b9e57600080fd5b60015b6003548111610940576000818152600860205260409020546001600160a01b03808516911603611be35760009081526008602052604090206001015492915050565b80611bed81612ed5565b915050611ba1565b60006060600080600080600087118015611c115750600f548711155b611c505760405162461bcd60e51b815260206004820152601060248201526f125b9d985b1a590818985d18da08125160821b60448201526064016109ff565b6000878152601060209081526040808320815160c081018352815481526001820180548451818702810187019095528085529194929385840193909290830182828015611cbc57602002820191906000526020600020905b815481526020019060010190808311611ca8575b505050505081526020016002820154815260200160038201548152602001600482015481526020016005820154815250509050806000015181602001518260400151836060015184608001518560a001519650965096509650965096505091939550919395565b600082118015611d3557506001548211155b611d3e57600080fd5b6000611d49336108d5565b905060008111611d5857600080fd5b60036000848152600660205260409020600c015460ff166005811115611d8057611d80612dcd565b14611d8a57600080fd5b6000838152600660205260409020600901548114611dba5760405162461bcd60e51b81526004016109ff9061305b565b6000838152600660205260409020600a01611dd58382612f85565b506000838152600660205260409020600c0180546004919060ff1916600183610780565b6008602052600090815260409020805460018201546002830180546001600160a01b03909316939192610b7790612efc565b600081815260146020908152604091829020805483518184028101840190945280845260609392830182828015610a5f5760200282019190600052602060002090815481526020019060010190808311610a4b5750505050509050919050565b600083118015611e9d57506001548311155b611ea657600080fd5b6000611eb133610949565b905060008111611ec057600080fd5b6000848152600660205260408120600c015460ff166005811115611ee657611ee6612dcd565b14611ef057600080fd5b6000848152600660205260409020600301548114611f0d57600080fd5b6000848152600660205260409020600401611f288382612f85565b505050600091825260066020526040909120600c8101805460ff1916600117905560050155565b6060600060015411611f6057600080fd5b6000828152600660205260408120600c015460ff166005811115611f8657611f86612dcd565b03611fb757505060408051808201909152601081526f1359591a58da5b994813dc99195c995960821b602082015290565b60016000838152600660205260409020600c015460ff166005811115611fdf57611fdf612dcd565b0361201d57505060408051808201909152601981527f526177204d6174657269616c20537570706c7920537461676500000000000000602082015290565b60026000838152600660205260409020600c015460ff16600581111561204557612045612dcd565b036120795750506040805180820190915260138152724d616e75666163747572696e6720537461676560681b602082015290565b60036000838152600660205260409020600c015460ff1660058111156120a1576120a1612dcd565b036120d4575050604080518082019091526012815271446973747269627574696f6e20537461676560701b602082015290565b60046000838152600660205260409020600c015460ff1660058111156120fc576120fc612dcd565b0361212957505060408051808201909152600c81526b52657461696c20537461676560a01b602082015290565b60056000838152600660205260409020600c015460ff16600581111561215157612151612dcd565b0361217f57505060408051808201909152600d81526c1359591a58da5b994814dbdb19609a1b602082015290565b919050565b600660205260009081526040902080546001820180549192916121a690612efc565b80601f01602080910402602001604051908101604052809291908181526020018280546121d290612efc565b801561221f5780601f106121f45761010080835404028352916020019161221f565b820191906000526020600020905b81548152906001019060200180831161220257829003601f168201915b50505050509080600201805461223490612efc565b80601f016020809104026020016040519081016040528092919081815260200182805461226090612efc565b80156122ad5780601f10612282576101008083540402835291602001916122ad565b820191906000526020600020905b81548152906001019060200180831161229057829003601f168201915b5050505050908060030154908060040180546122c890612efc565b80601f01602080910402602001604051908101604052809291908181526020018280546122f490612efc565b80156123415780601f1061231657610100808354040283529160200191612341565b820191906000526020600020905b81548152906001019060200180831161232457829003601f168201915b50505050509080600501549080600601805461235c90612efc565b80601f016020809104026020016040519081016040528092919081815260200182805461238890612efc565b80156123d55780601f106123aa576101008083540402835291602001916123d5565b820191906000526020600020905b8154815290600101906020018083116123b857829003601f168201915b5050505050908060070154908060080180546123f090612efc565b80601f016020809104026020016040519081016040528092919081815260200182805461241c90612efc565b80156124695780601f1061243e57610100808354040283529160200191612469565b820191906000526020600020905b81548152906001019060200180831161244c57829003601f168201915b50505050509080600901549080600a01805461248490612efc565b80601f01602080910402602001604051908101604052809291908181526020018280546124b090612efc565b80156124fd5780601f106124d2576101008083540402835291602001916124fd565b820191906000526020600020905b8154815290600101906020018083116124e057829003601f168201915b50505050509080600b01805461251290612efc565b80601f016020809104026020016040519081016040528092919081815260200182805461253e90612efc565b801561258b5780601f106125605761010080835404028352916020019161258b565b820191906000526020600020905b81548152906001019060200180831161256e57829003601f168201915b505050600c909301549192505060ff168d565b6007602052600090815260409020805460018201546002830180546001600160a01b03909316939192610b7790612efc565b601460205281600052604060002081815481106125ec57600080fd5b90600052602060002001600091509150505481565b60008060608060008060008711801561261c57506012548711155b61265d5760405162461bcd60e51b8152602060048201526012602482015271125b9d985b1a59081c995c5d595cdd08125160721b60448201526064016109ff565b6000601360008981526020019081526020016000206040518060c001604052908160008201548152602001600182015481526020016002820180546126a190612efc565b80601f01602080910402602001604051908101604052809291908181526020018280546126cd90612efc565b801561271a5780601f106126ef5761010080835404028352916020019161271a565b820191906000526020600020905b8154815290600101906020018083116126fd57829003601f168201915b5050505050815260200160038201805461273390612efc565b80601f016020809104026020016040519081016040528092919081815260200182805461275f90612efc565b80156127ac5780601f10612781576101008083540402835291602001916127ac565b820191906000526020600020905b81548152906001019060200180831161278f57829003601f168201915b50505091835250506004919091015460ff8082161515602080850191909152610100909204161515604092830152825190830151918301516060840151608085015160a090950151929d939c50909a50985091965090945092505050565b828054828255906000526020600020908101928215612845579160200282015b8281111561284557825182559160200191906001019061282a565b50612851929150612855565b5090565b5b808211156128515760008155600101612856565b634e487b7160e01b600052604160045260246000fd5b604051601f8201601f1916810167ffffffffffffffff811182821017156128a9576128a961286a565b604052919050565b600082601f8301126128c257600080fd5b813567ffffffffffffffff8111156128dc576128dc61286a565b6128ef601f8201601f1916602001612880565b81815284602083860101111561290457600080fd5b816020850160208301376000918101602001919091529392505050565b60008060006060848603121561293657600080fd5b833567ffffffffffffffff8082111561294e57600080fd5b61295a878388016128b1565b9450602086013591508082111561297057600080fd5b5061297d868287016128b1565b925050604084013590509250925092565b6000602082840312156129a057600080fd5b5035919050565b6000815180845260005b818110156129cd576020818501810151868301820152016129b1565b506000602082860101526020601f19601f83011685010191505092915050565b86815285602082015260c060408201526000612a0c60c08301876129a7565b8281036060840152612a1e81876129a7565b9415156080840152505090151560a090910152949350505050565b80356001600160a01b038116811461217f57600080fd5b600060208284031215612a6257600080fd5b612a6b82612a39565b9392505050565b600081518084526020808501945080840160005b83811015612aa257815187529582019590820190600101612a86565b509495945050505050565b602081526000612a6b6020830184612a72565b600080600060608486031215612ad557600080fd5b612ade84612a39565b9250602084013567ffffffffffffffff80821115612afb57600080fd5b612b07878388016128b1565b93506040860135915080821115612b1d57600080fd5b50612b2a868287016128b1565b9150509250925092565b60018060a01b0385168152836020820152608060408201526000612b5b60808301856129a7565b8281036060840152612b6d81856129a7565b979650505050505050565b600082601f830112612b8957600080fd5b8135602067ffffffffffffffff80831115612ba657612ba661286a565b8260051b612bb5838201612880565b9384528581018301938381019088861115612bcf57600080fd5b84880192505b85831015612c0b57823584811115612bed5760008081fd5b612bfb8a87838c01016128b1565b8352509184019190840190612bd5565b98975050505050505050565b600080600060608486031215612c2c57600080fd5b833567ffffffffffffffff80821115612c4457600080fd5b612c5087838801612b78565b94506020860135915080821115612c6657600080fd5b5061297d86828701612b78565b60008060408385031215612c8657600080fd5b82359150602083013567ffffffffffffffff811115612ca457600080fd5b612cb0858286016128b1565b9150509250929050565b60008060408385031215612ccd57600080fd5b50508035926020909101359150565b60008060408385031215612cef57600080fd5b823567ffffffffffffffff80821115612d0757600080fd5b612d13868387016128b1565b93506020850135915080821115612d2957600080fd5b50612cb0858286016128b1565b600080600060608486031215612d4b57600080fd5b8335925060208401359150604084013567ffffffffffffffff811115612d7057600080fd5b612b2a868287016128b1565b86815260c060208201526000612d9560c0830188612a72565b90508560408301528460608301528360808301528260a0830152979650505050505050565b602081526000612a6b60208301846129a7565b634e487b7160e01b600052602160045260246000fd5b60068110612e0157634e487b7160e01b600052602160045260246000fd5b9052565b8d81526101a060208201526000612e206101a083018f6129a7565b8281036040840152612e32818f6129a7565b90508c60608401528281036080840152612e4c818d6129a7565b90508a60a084015282810360c0840152612e66818b6129a7565b90508860e0840152828103610100840152612e8181896129a7565b905086610120840152828103610140840152612e9d81876129a7565b9050828103610160840152612eb281866129a7565b915050612ec3610180830184612de3565b9e9d5050505050505050505050505050565b600060018201612ef557634e487b7160e01b600052601160045260246000fd5b5060010190565b600181811c90821680612f1057607f821691505b602082108103612f3057634e487b7160e01b600052602260045260246000fd5b50919050565b601f821115612f8057600081815260208120601f850160051c81016020861015612f5d5750805b601f850160051c820191505b81811015612f7c57828155600101612f69565b5050505b505050565b815167ffffffffffffffff811115612f9f57612f9f61286a565b612fb381612fad8454612efc565b84612f36565b602080601f831160018114612fe85760008415612fd05750858301515b600019600386901b1c1916600185901b178555612f7c565b600085815260208120601f198616915b8281101561301757888601518255948401946001909101908401612ff8565b50858210156130355787850151600019600388901b60f8161c191681555b5050505050600190811b01905550565b634e487b7160e01b600052603260045260246000fd5b60208082526034908201527f4f6e6c79207468652072657175657374696e672072657461696c65722063616e604082015273103832b93337b936903a3434b99030b1ba34b7b760611b60608201526080019056fea26469706673582212201f076332e730eb4e57bc91a51a9eabaf8921b5b809085334588c742d711c5ad064736f6c63430008140033",
  "immutableReferences": {},
  "source": "// SPDX-License-Identifier: MIT\r\npragma solidity ^0.8.20;\r\n\r\nimport \"@openzeppelin/contracts/utils/Strings.sol\";\r\ncontract SupplyChain {\r\n    //Smart Contract owner will be the person who deploys the contract only he can authorize various roles like retailer, Manufacturer,etc\r\n    address public Owner;\r\n\r\n    //note this constructor will be called when smart contract will be deployed on blockchain\r\n    constructor() public {\r\n        Owner = msg.sender;\r\n    }\r\n\r\n\r\n\r\n    //Roles (flow of pharma supply chain)\r\n     // RawMaterialSupplier; //This is where Manufacturer will get raw materials to make medicines\r\n    // Manufacturer;  //Various WHO guidelines should be followed by this person\r\n    // Distributor; //This guy distributes the medicines to retailers\r\n    // Retailer; //Normal customer buys from the retailer\r\n\r\n    //modifier to make sure only the owner is using the function\r\n    modifier onlyByOwner() {\r\n        require(msg.sender == Owner);\r\n        _;\r\n    }\r\n\r\n    //stages of a medicine in pharma supply chain\r\n    enum STAGE {\r\n        Init,\r\n        RawMaterialSupply,\r\n        Manufacture,\r\n        Distribution,\r\n        Retail,\r\n        sold\r\n    }\r\n    //using this we are going to track every single medicine the owner orders\r\n    //Medicine count\r\n    uint256 public medicineCtr = 0;\r\n    //Raw material supplier count\r\n    uint256 public rmsCtr = 0;\r\n    //Manufacturer count\r\n    uint256 public manCtr = 0;\r\n    //distributor count\r\n    uint256 public disCtr = 0;\r\n    //retailer count\r\n    uint256 public retCtr = 0;\r\n\r\n\r\n    //To store information about the medicine\r\n    struct medicine {\r\n        uint256 id; //unique medicine id\r\n        string name; //name of the medicine\r\n        string description; //about medicine\r\n        uint256 RMSid; //id of the Raw Material supplier for this particular medicine\r\n        string newRMS;\r\n\r\n        uint256 MANid; //id of the Manufacturer for this particular medicine\r\n        string newMAN;\r\n\r\n        uint256 DISid; //id of the distributor for this particular medicine\r\n        string newDIS;\r\n\r\n        uint256 RETid; //id of the retailer for this particular medicine\r\n        string newRET;\r\n        string newSold;\r\n \r\n        STAGE stage; //current medicine stage\r\n    }\r\n\r\n\r\n    //To store all the medicines on the blockchain\r\n    mapping(uint256 => medicine) public MedicineStock;\r\n\r\n    //To show status to client applications\r\n    function showStage(uint256 _medicineID)\r\n        public\r\n        view\r\n        returns (string memory)\r\n    {\r\n        require(medicineCtr > 0);\r\n        if (MedicineStock[_medicineID].stage == STAGE.Init)\r\n            return \"Medicine Ordered\";\r\n        else if (MedicineStock[_medicineID].stage == STAGE.RawMaterialSupply)\r\n            return \"Raw Material Supply Stage\";\r\n        else if (MedicineStock[_medicineID].stage == STAGE.Manufacture)\r\n            return \"Manufacturing Stage\";\r\n        else if (MedicineStock[_medicineID].stage == STAGE.Distribution)\r\n            return \"Distribution Stage\";\r\n        else if (MedicineStock[_medicineID].stage == STAGE.Retail)\r\n            return \"Retail Stage\";\r\n        else if (MedicineStock[_medicineID].stage == STAGE.sold)\r\n            return \"Medicine Sold\";\r\n    }\r\n\r\n    //To store information about raw material supplier\r\n    struct rawMaterialSupplier {\r\n        address addr;\r\n        uint256 id; //supplier id\r\n        string name; //Name of the raw material supplier\r\n        string place; //Place the raw material supplier is based in\r\n    }\r\n\r\n    //To store all the raw material suppliers on the blockchain\r\n    mapping(uint256 => rawMaterialSupplier) public RMS;\r\n\r\n    //To store information about manufacturer\r\n    struct manufacturer {\r\n        address addr;\r\n        uint256 id; //manufacturer id\r\n        string name; //Name of the manufacturer\r\n        string place; //Place the manufacturer is based in\r\n    }\r\n\r\n    //To store all the manufacturers on the blockchain\r\n    mapping(uint256 => manufacturer) public MAN;\r\n\r\n    //To store information about distributor\r\n    struct distributor {\r\n        address addr;\r\n        uint256 id; //distributor id\r\n        string name; //Name of the distributor\r\n        string place; //Place the distributor is based in\r\n    }\r\n\r\n    //To store all the distributors on the blockchain\r\n    mapping(uint256 => distributor) public DIS;\r\n\r\n    //To store information about retailer\r\n    struct retailer {\r\n        address addr;\r\n        uint256 id; //retailer id\r\n        string name; //Name of the retailer\r\n        string place; //Place the retailer is based in\r\n    }\r\n\r\n    //To store all the retailers on the blockchain\r\n    mapping(uint256 => retailer) public RET;\r\n\r\n    //Role mappings for permission checks\r\n    mapping(address => bool) public isRMS;\r\n    mapping(address => bool) public isMAN;\r\n    mapping(address => bool) public isDIS;\r\n    mapping(address => bool) public isRET;\r\n\r\n    //To add raw material suppliers. Only contract owner can add a new raw material supplier\r\n    function addRMS(\r\n        address _address,\r\n        string memory _name,\r\n        string memory _place\r\n    ) public onlyByOwner() {\r\n        rmsCtr++;\r\n        RMS[rmsCtr] = rawMaterialSupplier(_address, rmsCtr, _name, _place);\r\n        isRMS[_address] = true;\r\n    }\r\n\r\n    //To add manufacturer. Only contract owner can add a new manufacturer\r\n    function addManufacturer(\r\n        address _address,\r\n        string memory _name,\r\n        string memory _place\r\n    ) public onlyByOwner() {\r\n        manCtr++;\r\n        MAN[manCtr] = manufacturer(_address, manCtr, _name, _place);\r\n        isMAN[_address] = true;\r\n    }\r\n\r\n    //To add distributor. Only contract owner can add a new distributor\r\n    function addDistributor(\r\n        address _address,\r\n        string memory _name,\r\n        string memory _place\r\n    ) public onlyByOwner() {\r\n        disCtr++;\r\n        DIS[disCtr] = distributor(_address, disCtr, _name, _place);\r\n        isDIS[_address] = true;\r\n    }\r\n\r\n    //To add retailer. Only contract owner can add a new retailer\r\n    function addRetailer(\r\n        address _address,\r\n        string memory _name,\r\n        string memory _place\r\n    ) public onlyByOwner() {\r\n        retCtr++;\r\n        RET[retCtr] = retailer(_address, retCtr, _name, _place);\r\n        isRET[_address] = true;\r\n    }\r\n\r\n    //To supply raw materials from RMS supplier to the manufacturer\r\n    function RMSsupply(uint256 _medicineID, uint256 _MANid, string memory _locationData) public {\r\n        require(_medicineID > 0 && _medicineID <= medicineCtr);\r\n        uint256 _id = findRMS(msg.sender);\r\n        require(_id > 0);\r\n        require(MedicineStock[_medicineID].stage == STAGE.Init);\r\n        require(_id==MedicineStock[_medicineID].RMSid);\r\n        MedicineStock[_medicineID].newRMS = _locationData;\r\n        MedicineStock[_medicineID].stage = STAGE.RawMaterialSupply;\r\n        MedicineStock[_medicineID].MANid=_MANid;\r\n    }\r\n    \r\n    //To check if RMS is available in the blockchain\r\n    function findRMS(address _address) public view returns (uint256) {\r\n        require(rmsCtr > 0);\r\n        for (uint256 i = 1; i <= rmsCtr; i++) {\r\n            if (RMS[i].addr == _address) return RMS[i].id;\r\n        }\r\n        return 0;\r\n    }\r\n\r\n    //To manufacture medicine\r\n    function Manufacturing(uint256 _medicineID, uint256 _DISid, string memory _locationData) public {\r\n        require(_medicineID > 0 && _medicineID <= medicineCtr);\r\n        uint256 _id = findMAN(msg.sender);\r\n        require(_id > 0);\r\n        require(MedicineStock[_medicineID].stage == STAGE.RawMaterialSupply);\r\n        require(_id==MedicineStock[_medicineID].MANid);\r\n        MedicineStock[_medicineID].newMAN = _locationData;\r\n        MedicineStock[_medicineID].stage = STAGE.Manufacture;\r\n        MedicineStock[_medicineID].DISid=_DISid;\r\n    }\r\n\r\n    //To check if Manufacturer is available in the blockchain\r\n    function findMAN(address _address) public view returns (uint256) {\r\n        require(manCtr > 0);\r\n        for (uint256 i = 1; i <= manCtr; i++) {\r\n            if (MAN[i].addr == _address) return MAN[i].id;\r\n        }\r\n        return 0;\r\n    }\r\n\r\n    //To supply medicines from Manufacturer to distributor\r\n    function Distribute(uint256 _medicineID, string memory _locationData) public {\r\n        require(_medicineID > 0 && _medicineID <= medicineCtr);\r\n        uint256 _id = findDIS(msg.sender);\r\n        require(_id > 0);\r\n        require(MedicineStock[_medicineID].stage == STAGE.Manufacture);\r\n        require(_id==MedicineStock[_medicineID].DISid);\r\n        MedicineStock[_medicineID].newDIS = _locationData;\r\n        MedicineStock[_medicineID].stage = STAGE.Distribution;\r\n        // RETid is already set when accepting retailer request, so we don't need to set it here\r\n    }\r\n\r\n    //To check if distributor is available in the blockchain\r\n    function findDIS(address _address) public view returns (uint256) {\r\n        require(disCtr > 0);\r\n        for (uint256 i = 1; i <= disCtr; i++) {\r\n            if (DIS[i].addr == _address) return DIS[i].id;\r\n        }\r\n        return 0;\r\n    }\r\n\r\n    //To supply medicines from distributor to retailer\r\n    function Retail(uint256 _medicineID, string memory _locationData) public {\r\n        require(_medicineID > 0 && _medicineID <= medicineCtr);\r\n        uint256 _id = findRET(msg.sender);\r\n        require(_id > 0);\r\n        require(MedicineStock[_medicineID].stage == STAGE.Distribution);\r\n        require(_id == MedicineStock[_medicineID].RETid, \"Only the requesting retailer can perform this action\");\r\n        MedicineStock[_medicineID].newRET = _locationData;\r\n        MedicineStock[_medicineID].stage = STAGE.Retail;\r\n    }\r\n\r\n    //To check if retailer is available in the blockchain\r\n    function findRET(address _address) public view returns (uint256) {\r\n        if (retCtr == 0) return 0;\r\n        for (uint256 i = 1; i <= retCtr; i++) {\r\n            if (RET[i].addr == _address) return RET[i].id;\r\n        }\r\n        return 0;\r\n    }\r\n\r\n    //To sell medicines from retailer to consumer\r\n    function sold(uint256 _medicineID, string memory _locationData) public {\r\n        require(_medicineID > 0 && _medicineID <= medicineCtr);\r\n        uint256 _id = findRET(msg.sender);\r\n        require(_id > 0);\r\n        require(_id == MedicineStock[_medicineID].RETid, \"Only the requesting retailer can perform this action\");\r\n        require(MedicineStock[_medicineID].stage == STAGE.Retail);\r\n        MedicineStock[_medicineID].newSold = _locationData;\r\n        MedicineStock[_medicineID].stage = STAGE.sold;\r\n    }\r\n\r\n    // To add new medicines to the stock\r\n    function addMedicine(string memory _name, string memory _description, uint256 _newid)\r\n        public\r\n        onlyByOwner()\r\n    {\r\n        require((rmsCtr >= 0) && (manCtr >= 0) && (disCtr >= 0) && (retCtr >= 0));\r\n        medicineCtr++;\r\n        // MedicineStock[medicineCtr] = medicine(\r\n        //     medicineCtr,\r\n        //     _name,\r\n        //     _description,\r\n        //     0,\r\n        //     0,\r\n        //     0,\r\n        //     0,\r\n        //     STAGE.Init\r\n        // );\r\n        MedicineStock[medicineCtr].id = medicineCtr;\r\n        MedicineStock[medicineCtr].name = _name;\r\n        MedicineStock[medicineCtr].description = _description;\r\n        MedicineStock[medicineCtr].RMSid = _newid;\r\n        MedicineStock[medicineCtr].MANid = 0;\r\n        MedicineStock[medicineCtr].DISid = 0;\r\n        MedicineStock[medicineCtr].RETid = 0;\r\n        MedicineStock[medicineCtr].stage = STAGE.Init;\r\n    }\r\n\r\n    // Batch tracking\r\n    uint256 public batchCtr = 0;\r\n    \r\n    struct Batch {\r\n        uint256 id;\r\n        uint256[] medicineIds;\r\n        uint256 RMSid;\r\n        uint256 MANid;\r\n        uint256 DISid;\r\n        uint256 RETid;\r\n    }\r\n\r\n    mapping(uint256 => Batch) public Batches;\r\n    mapping(uint256 => uint256) public MedicineToBatch; // Maps medicine ID to batch ID\r\n\r\n    // Modified addMultipleMedicines function\r\n    function addMultipleMedicines(\r\n        string[] memory _names,\r\n        string[] memory _descriptions,\r\n        uint256 _RMSid\r\n    ) public onlyByOwner() {\r\n        require(_names.length == _descriptions.length, \"Arrays must be of equal length\");\r\n        require(_names.length > 0, \"Must add at least one medicine\");\r\n        require(_RMSid > 0 && _RMSid <= rmsCtr, \"Invalid RMS ID\");\r\n        \r\n        batchCtr++;\r\n        uint256[] memory medicineIds = new uint256[](_names.length);\r\n        \r\n        for (uint i = 0; i < _names.length; i++) {\r\n            medicineCtr++;\r\n            MedicineStock[medicineCtr] = medicine({\r\n                id: medicineCtr,\r\n                name: _names[i],\r\n                description: _descriptions[i],\r\n                RMSid: _RMSid,\r\n                newRMS: \"\",\r\n                MANid: 0,\r\n                newMAN: \"\",\r\n                DISid: 0,\r\n                newDIS: \"\",\r\n                RETid: 0,\r\n                newRET: \"\",\r\n                newSold:\"\",\r\n                stage: STAGE.Init\r\n            });\r\n            medicineIds[i] = medicineCtr;\r\n            MedicineToBatch[medicineCtr] = batchCtr;\r\n        }\r\n\r\n        Batches[batchCtr] = Batch({\r\n            id: batchCtr,\r\n            medicineIds: medicineIds,\r\n            RMSid: _RMSid,\r\n            MANid: 0,\r\n            DISid: 0,\r\n            RETid: 0\r\n        });\r\n    }\r\n\r\n    // Function to get medicines in a batch\r\n    function getMedicinesInBatch(uint256 _batchId) public view returns (uint256[] memory) {\r\n        require(_batchId > 0 && _batchId <= batchCtr, \"Invalid batch ID\");\r\n        return Batches[_batchId].medicineIds;\r\n    }\r\n\r\n    // Function to get batch details\r\n    function getBatchDetails(uint256 _batchId) public view returns (\r\n        uint256 id,\r\n        uint256[] memory medicineIds,\r\n        uint256 RMSid,\r\n        uint256 MANid,\r\n        uint256 DISid,\r\n        uint256 RETid\r\n    ) {\r\n        require(_batchId > 0 && _batchId <= batchCtr, \"Invalid batch ID\");\r\n        Batch memory batch = Batches[_batchId];\r\n        return (\r\n            batch.id,\r\n            batch.medicineIds,\r\n            batch.RMSid,\r\n            batch.MANid,\r\n            batch.DISid,\r\n            batch.RETid\r\n        );\r\n    }\r\n\r\n    \r\n\r\n    // Retailer Request System\r\n    struct RetailerRequest {\r\n        uint256 id;\r\n        uint256 retailerId;\r\n        string name;\r\n        string description;\r\n        bool isApproved;\r\n        bool isProcessed;\r\n    }\r\n\r\n    uint256 public requestCtr = 0;\r\n    mapping(uint256 => RetailerRequest) public RetailerRequests;\r\n    mapping(uint256 => uint256[]) public RetailerToRequests; // Maps retailer ID to their request IDs\r\n\r\n    // Function for retailers to submit requests\r\n    function submitRetailerRequest(string memory _name, string memory _description) public {\r\n        uint256 retailerId = findRET(msg.sender);\r\n        require(retailerId > 0, \"Only registered retailers can submit requests\");\r\n        \r\n        requestCtr++;\r\n        RetailerRequests[requestCtr] = RetailerRequest(\r\n            requestCtr,\r\n            retailerId,\r\n            _name,\r\n            _description,\r\n            false,\r\n            false\r\n        );\r\n        RetailerToRequests[retailerId].push(requestCtr);\r\n    }\r\n\r\n    // Function for owner to approve requests\r\n    function approveRetailerRequest(uint256 _requestId, uint256 _rmsId) public onlyByOwner {\r\n        require(_requestId > 0 && _requestId <= requestCtr, \"Invalid request ID\");\r\n        require(_rmsId > 0 && _rmsId <= rmsCtr, \"Invalid RMS ID\");\r\n        require(!RetailerRequests[_requestId].isApproved, \"Request already approved\");\r\n        \r\n        RetailerRequests[_requestId].isApproved = true;\r\n        \r\n        // Get the retailer ID from the request\r\n        uint256 retailerId = RetailerRequests[_requestId].retailerId;\r\n        \r\n        // Automatically add the medicine to the system with the retailer ID\r\n        addMedicine(\r\n            RetailerRequests[_requestId].name,\r\n            RetailerRequests[_requestId].description,\r\n            _rmsId\r\n        );\r\n        \r\n        // Set the retailer ID for the newly added medicine\r\n        MedicineStock[medicineCtr].RETid = retailerId;\r\n    }\r\n\r\n    // Function to get all requests for a retailer\r\n    function getRetailerRequests(uint256 _retailerId) public view returns (uint256[] memory) {\r\n        return RetailerToRequests[_retailerId];\r\n    }\r\n\r\n    // Function to get request details\r\n    function getRequestDetails(uint256 _requestId) public view returns (\r\n        uint256 id,\r\n        uint256 retailerId,\r\n        string memory name,\r\n        string memory description,\r\n        bool isApproved,\r\n        bool isProcessed\r\n    ) {\r\n        require(_requestId > 0 && _requestId <= requestCtr, \"Invalid request ID\");\r\n        RetailerRequest memory request = RetailerRequests[_requestId];\r\n        return (\r\n            request.id,\r\n            request.retailerId,\r\n            request.name,\r\n            request.description,\r\n            request.isApproved,\r\n            request.isProcessed\r\n        );\r\n    }\r\n\r\n    // Function to update medicine location data\r\n    function updateMedicineLocation(uint256 _medicineID, string memory _locationData) public {\r\n        require(_medicineID > 0 && _medicineID <= medicineCtr, \"Invalid medicine ID\");\r\n        uint256 _id = findRMS(msg.sender);\r\n        require(_id > 0, \"Only registered RMS can update location\");\r\n        require(_id == MedicineStock[_medicineID].RMSid, \"Unauthorized RMS for this medicine\");\r\n        \r\n        MedicineStock[_medicineID].newRMS = _locationData;\r\n    }\r\n}\r\n",
  "sourcePath": "C:\\Users\\shank\\Desktop\\PharmaChain_final\\pharma-block-web-main\\contracts\\SupplyChain.sol",
  "compiler": {
    "name": "solc",
    "version": "0.8.20+commit.a1b79de6.Emscripten.clang"
  },
  "schemaVersion": "3.4.16",
  "updatedAt": "2025-05-12T04:12:07.222Z",
  "networkType": "ethereum",
  "devdoc": {
    "kind": "dev",
    "methods": {},
    "version": 1
  },
  "userdoc": {
    "kind": "user",
    "methods": {},
    "version": 1
  }
}